S01400004B4D5F333230305F763232302E73726563EB
S11300000C944A000C945C000C945C000C945C000E
S11300100C94FB000C945C000C945C000C945C004D
S11300200C945C000C945C000C945C000C945C00DC
S11300300C945C000C949F0A0C94A3040C94DF04AD
S11300400C945C000C945C000C940E050C948506D6
S11300500C94BF060C945C000C945C000C945C0043
S11300600C945C000C945C0094055A0663066105CC
S11300706A0572057A058205303930303031003036
S11300803232303030004B4D30312D333230302E5F
S11300904D30000011241FBECFEFD4E0DEBFCDBF32
S11300A023E0A0E0B1E001C01D92A33AB207E1F75A
S11300B00E94520B0C94E30D0C94000015B887E0D9
S11300C084B918B817B881E28BB986E08AB9089563
S11300D0E8E6F0E0808182608083ECE6F0E08081F5
S11300E0876080830895803168F42091890130917C
S11300F08A01A90102C0569547958A95E2F7CA017B
S1130100817008958FEF0895803168F420918B01F8
S113011030918C01A90102C0569547958A95E2F762
S1130120CA01817008958FEF0895803160F56230BF
S113013060F5662399F0EDE2F3E021E030E0A901F7
S113014002C0440F551F8A95E2F7CA01208131810C
S1130150822B932B9183808381E00895EDE2F3E079
S113016021E030E0A90102C0440F551F8A95E2F74F
S1130170CA018095909520813181822393239183B4
S1130180808380E008958FEF08958FEF089582E0D3
S113019090E0A2E0B0E0E9E8F1E061E070E026B1CF
S11301A030E0AD01481B590B02C0359527954A959F
S11301B0E2F720FD10C09B01082E02C0220F331F5E
S11301C00A94E2F720953095408151812423352308
S11301D0318320830DC020813181AB01082E02C000
S11301E0440F551F0A94E2F7242B352B31832083C7
S11301F00197A8F608951F920F920FB60F9211243B
S11302002F933F934F935F936F937F938F939F931A
S1130210AF93BF93EF93FF9382E090E0A2E0B0E04E
S1130220E9E8F1E061E070E026B130E0AD01481B9F
S1130230590B02C0359527954A95E2F720FD10C069
S11302409B01082E02C0220F331F0A94E2F7209567
S113025030954081518124233523318320830DC07F
S113026020813181AB01082E02C0440F551F0A942E
S1130270E2F7242B352B318320830197A8F62091B4
S11302802F0320FF30C086B13091900230FD24C08E
S113029082FF22C0E1E9F2E080819181019691839D
S11302A08083316030939002409131035091320346
S11302B08417950788F01092920210929102E3E954
S11302C0F2E080819181A281B3810196A11DB11DCB
S11302D080839183A283B383329905C0E0E9F2E07D
S11302E080818E7F808321FF30C086B1309190025F
S11302F031FD24C081FF22C0E7E9F2E080819181D1
S11303000196918380833260309390024091370349
S1130310509138038417950788F010929802109230
S11303209702E9E9F2E080819181A281B38101968B
S1130330A11DB11D80839183A283B383319905C02C
S1130340E0E9F2E080818D7F808322FF30C086B1B6
S11303502091900222FD24C080FF22C0EDE9F2E04A
S113036080819181019691838083246020939002FF
S113037020913D0330913E038217930788F0109239
S11303809E0210929D02EFE9F2E080819181A281A8
S1130390B3810196A11DB11D80839183A283B38390
S11303A0309905C0E0E9F2E080818B7F8083FF9182
S11303B0EF91BF91AF919F918F917F916F915F91D9
S11303C04F913F912F910F900FBE0F901F90189552
S11303D0199B08C0EBE8F1E08081918181609183F1
S11303E0808307C0EBE8F1E0808191818E7F918367
S11303F080831A9908C0EBE8F1E0808191818D7FB8
S1130400918380830895EBE8F1E08081918182609B
S113041091838083089580912D0380FF02C0299ADF
S113042001C0299880912D0381FD02C02A98089566
S11304302A9A0895109290021092920210929102B8
S113044010929302109294021092950210929602C6
S113045010929802109297021092990210929A02A6
S113046010929B0210929C0210929E0210929D0286
S113047010929F021092A0021092A1021092A20266
S113048008952091390330913A0380919302909119
S11304909402A0919502B0919602820F931FA11D20
S11304A0B11D409137035091380360E070E0BA0108
S11304B055274427840F951FA61FB71FB0939E018D
S11304C0A0939D019093A00180939F0120913D03EF
S11304D030913E038091990290919A02A0919B02DF
S11304E0B0919C02820F931FA11DB11D40913B034B
S11304F050913C0360E070E0BA0155274427840F13
S1130500951FA61FB71FB093A201A093A1019093BA
S1130510A4018093A301209141033091420380916F
S11305209F029091A002A091A102B091A202820F19
S1130530931FA11DB11D40913F035091400360E002
S113054070E0BA0155274427840F951FA61FB71FD3
S1130550B093A601A093A5019093A8018093A7014D
S11305600895CF93DF93CDB7DEB763970FB6F894B2
S1130570DEBF0FBECDBFF99B02C0F999FECFA8958F
S113058043E150E060E070E0CE0101960E94A80DC6
S1130590A895F99B02C0F999FECFA89543E150E0D4
S11305A063E170E0CE0101960E94C60D63960FB61A
S11305B0F894DEBF0FBECDBFDF91CF91089586E8DA
S11305C090E0AFEBB1E022E930E0FC0144913196D8
S11305D0E491F0E0F42BED93FD93029682179307D8
S11305E0A1F708958FE790E0AFECB1E025E830E0A3
S11305F0FC0144913196E491F0E0F42BED93FD93EA
S1130600029682179307A1F7089588E790E0A5ED75
S1130610B1E02EE730E0FC0144913196E491F0E042
S1130620F42BED93FD93029682179307A1F7089597
S1130630F99B02C0F999FECFA89583E190E00E944E
S1130640B80D90E090935E0380935D030895CF937B
S1130650DF93F99B02C0F999FECFA89585E190E05C
S11306600E94B80DC82FD0E0DC2FCC27D0936003B4
S1130670C0935F03A89584E190E00E94B80DC82B55
S1130680D0936003C0935F03DF91CF910895F99BEA
S113069002C0F999FECFA89586E190E00E94B80DBA
S11306A090E09093300380932F030895F99B02C048
S11306B0F999FECFA89587E190E00E94B80D90E0EB
S11306C090933203809331030895F99B02C0F99902
S11306D0FECFA8958CE190E00E94C00D90933A0360
S11306E0809339030895F99B02C0F999FECFA89528
S11306F08AE190E00E94C00D909338038093370301
S11307000895F99B02C0F999FECFA89588E190E07D
S11307100E94B80D90E090933403809333030895BE
S1130720F99B02C0F999FECFA89580E290E00E945F
S1130730C00D90933E0380933D030895F99B02C03E
S1130740F999FECFA8958EE190E00E94C00D909398
S11307503C0380933B030895F99B02C0F999FECFB3
S1130760A89589E190E00E94B80D90E0909336033B
S1130770809335030895F99B02C0F999FECFA8959B
S113078084E290E00E94C00D909342038093410361
S11307900895F99B02C0F999FECFA89582E290E0F2
S11307A00E94C00D9093400380933F03089560918D
S11307B05D03F99B02C0F999FECFA89583E190E00F
S11307C00E94D00D089560915F03F99B02C0F999CE
S11307D0FECFA89584E190E00E94D00DA895F99BE6
S11307E002C0F999FECFA89560916003F99B02C0FD
S11307F0F999FECFA89585E190E00E94D00D089567
S1130800F99B02C0F999FECFA89560912F0386E168
S113081090E00E94D00D0895F99B02C0F999FECF93
S1130820A8956091310387E190E00E94D00D08956E
S1130830F99B02C0F999FECFA89560913903709194
S11308403A038CE190E00E94DE0D0895F99B02C00A
S1130850F999FECFA89560913703709138038AE126
S113086090E00E94DE0D0895F99B02C0F999FECF35
S1130870A8956091330388E190E00E94D00D08951B
S1130880F99B02C0F999FECFA89560913D03709140
S11308903E0380E290E00E94DE0D0895F99B02C0C1
S11308A0F999FECFA89560913B0370913C038EE1CA
S11308B090E00E94DE0D0895F99B02C0F999FECFE5
S11308C0A8956091350389E190E00E94D00D0895C8
S11308D0F99B02C0F999FECFA895609141037091EC
S11308E0420384E290E00E94DE0D0895F99B02C069
S11308F0F999FECFA89560913F037091400382E27D
S113090090E00E94DE0D08950E94DF020E94F20230
S11309100E9405030E9418030E9427030E944703B4
S11309200E9456030E9481030E94AC030E94730339
S11309300E9465030E949E030E9490030E94C903C3
S11309400E94BB0308951F920F920FB60F921124B9
S11309502F933F934F938F939F93AF93BF93EF93B3
S1130960FF9310920E0220910001309101011216A2
S1130970130664F4A4EAB2E0E5E0F1E080E090E07C
S11309804D914193019682179307D4F320938601E6
S1130990109201011092000114BC15BC81E08093F7
S11309A00702FF91EF91BF91AF919F918F914F916A
S11309B03F912F910F900FBE0F901F9018951F928B
S11309C00F920FB60F9211248F9381E080930E0241
S11309D08F910F900FBE0F901F901895382F66239C
S11309E0D1F0E82FF92F8FEF9FEF48E02191822774
S11309F0242F80FD03C09695879506C0969587950C
S1130A0051E0852750EA9527215099F72E2F231B73
S1130A10261760F308958FEF9FEF08951F920F92AA
S1130A200FB60F9211248F939F93EF93FF938091AE
S1130A30C000887119F08091C60026C09091C6004C
S1130A4080910E02811120C0E0910001F09101011A
S1130A50EC55FD4F908385B3866085BB16BC82E060
S1130A6084BD84E085BD80910001909101010196CF
S1130A708E3791052CF4909301018093000104C0FA
S1130A801092010110920001FF91EF919F918F91BB
S1130A900F900FBE0F901F9018958F929F92AF9258
S1130AA0BF92CF92DF92EF92FF92CF93C62F90E046
S1130AB0FC013397E830F10570F5EC5CFF4F0C94C2
S1130AC0A20D0F2EF0E8CF2EF5E2DF2EE12CF12C53
S1130AD0F02D32C00F2EC12CFBE4DF2EE12CF12CC3
S1130AE0F02D2AC00F2EC12CF6E9DF2EE12CF12CBB
S1130AF0F02D22C00F2EC12CF1EEDF2EE12CF12CB3
S1130B00F02D1AC00F2EC12CF2ECDF2EEE24E3944C
S1130B10F12CF02D11C00F2EF0E8CF2EF5E2DF2ED0
S1130B20E12CF12CF02D08C00F2EF0EBCF2EF4E0C9
S1130B30DF2EE12CF12CF02DC701B6010E948B0CA5
S1130B409B01AC0160E070E081E69BE40E94F50B40
S1130B5020E030E040E85DE30E941B0D20E030E03F
S1130B6040E05FE30E94900B4B015C0120E030E029
S1130B7040E05FE30E94170D88230CF499C0C5017F
S1130B80B4010E945D0C872E982EA92EBB2480925E
S1130B90C5006093C400C23041F0C33051F0C1308D
S1130BA061F48EEA8093C2000BC086E88093C20091
S1130BB007C08EE88093C20003C086EA8093C20017
S1130BC088ED8093C100E6ECF0E080818081808133
S1130BD080815998519A589A50985A98529AE4EAAE
S1130BE0F2E083E293E01192E817F907E1F7E5E018
S1130BF0F1E084E891E01192E817F907E1F7EFE0FA
S1130C00F2E08EE892E01192E817F907E1F710920A
S1130C100101109200011092070281E08093080202
S1130C20C1148BE4D806E104F1043CF00F2EC12C6E
S1130C30FBE4DF2EE12CF12CF02DC701B6010E945C
S1130C408B0C6B017C019B01AC0160E078E186EFC9
S1130C509DE40E94F50B20E030E040E85BE30E9455
S1130C601B0D20E030E040E05FE30E94910B0E9406
S1130C705D0C67BDA701960160E070EF82E59DE41D
S1130C800E94F50B20E030E040E85BE30E941B0D7E
S1130C9020E030E040E05FE30E94910B0E945D0C95
S1130CA068BDEEE6F0E080818660808380E014C059
S1130CB08FEF12C00F2EF0E6CF2EF9E0DF2EE12CDD
S1130CC0F12CF02D39CF0F2EF0ECCF2EF2E1DF2EE8
S1130CD0E12CF12CF02D30CFCF91FF90EF90DF90ED
S1130CE0CF90BF90AF909F908F9008958093A30270
S1130CF0109203011092020110920802E1ECF0E05C
S1130D008081806280835A9A08951F920F920FB651
S1130D100F9211242F933F938F939F93EF93FF93FD
S1130D202091A30230E080910201909103012817E1
S1130D303907A9F0A895599AE0910201F0910301AD
S1130D40E15FFD4F80818093C60080910201909104
S1130D5003010196909303018093020105C0E1EC25
S1130D60F0E080818F7D8083FF91EF919F918F913F
S1130D703F912F910F900FBE0F901F9018951F92C7
S1130D800F920FB60F9211248F935A9881E080939B
S1130D9008028F910F900FBE0F901F901895CF935C
S1130DA080910702882349F1109207029091A402CE
S1130DB080910D02981323C0C0918601C63008F1BA
S1130DC06EEF6C0F84EA92E00E94EE042C2F30E068
S1130DD0692F7727F901ED55FD4F408150E06417E5
S1130DE0750789F49927F901EE55FD4F208130E00C
S1130DF08217930751F08FEF09C080E007C08DEF91
S1130E0005C08EEF03C08FEF01C081E0CF9108953C
S1130E10AF92BF92CF92DF92EF92FF920F931F9304
S1130E20CF93DF93A895D0908E0280910A0290917F
S1130E300B02CD2CC80E9C01992314F4295F3F4F5B
S1130E40359527953595279535952795B22E877035
S1130E509078992324F40197886F9F6F0196181650
S1130E6019061CF4BB24B394B20EA090090221E02D
S1130E70A21228C080E18C1528F0DC1438F000E0C0
S1130E8010E047C082E08093840168C0C0E0D0E0F5
S1130E9000E010E0EE24E394F12C8C2F8D0D0E94E1
S1130EA08400882349F0C7010C2E02C0880F991FC3
S1130EB00A94E2F7082B192B21968C2F8D0D8C1593
S1130EC060F327C080E18C1528F0DC1438F000E0D2
S1130ED010E01FC082E08093840140C0C0E0D0E0F5
S1130EE000E010E0EE24E394F12C8C2F8D0D0E9491
S1130EF07300882349F0C7010C2E02C0880F991F84
S1130F000A94E2F7082B192B21968C2F8D0D8C1542
S1130F1060F380910D0280930F02A0921002B092B0
S1130F2011020093120282E0B81204C0109313025B
S1130F30C5E001C0C4E06C2F8FE092E00E94EE0493
S1130F40EC2FF0E0E15FFD4F8083E1E0EC0FF0E097
S1130F50E15FFD4F9083CE5FC093A302DF91CF91F9
S1130F601F910F91FF90EF90DF90CF90BF90AF90C3
S1130F700895CF93A89580918E0260910A02709192
S1130F800B02982F960F20910D0220930F0240918F
S1130F900902409310029B01220F331F2093110278
S1130FA0433031F5913420F4891730F0C3E045C063
S1130FB082E08093840154C023E0E82FF0E0EE0F38
S1130FC0FF1FED5DFC4F30814181E22FF0E0E15FD6
S1130FD0FD4F4083E1E0E20FF0E02E5FE15FFD4F63
S1130FE030838F5F8913E9CF660FC3E0C60F25C036
S1130FF0913420F4891730F0C3E01FC082E080935D
S113100084012EC023E0E82FF0E0EE0FFF1FE95724
S1131010FE4F30814181E22FF0E0E15FFD4F4083DC
S1131020E1E0E20FF0E02E5FE15FFD4F30838F5F80
S11310308913E9CF660FC3E0C60F6C2F8FE092E0EF
S11310400E94EE04EC2FF0E0E15FFD4F8083E1E0CD
S1131050EC0FF0E0E15FFD4F9083CE5FC093A302FD
S1131060CF910895A89580918E0290910A02980FCD
S1131070913120F082E080938401089590910901D8
S11310809F3F41F490910A0191110EC061E00E94CA
S113109095000EC0911108C090910A01911104C0ED
S11310A060E00E94950004C083E080938401089569
S11310B080910D0280930F028091090280931002A7
S11310C0809107018093110280910801809312029C
S11310D0809109018093130280910A018093140284
S11310E066E08FE092E00E94EE04809315029093F4
S11310F0160288E08093A3020895A89580918E0239
S113110090918F028134910524F082E080938401D0
S11311100895FC01EE0FFF1FED5DFC4F20910901C6
S113112030E0322F222740910A01242B318320837F
S11311308630910519F40E94000440C0873091055F
S113114019F40E940C043AC08830910519F40E94E5
S1131150340434C08930910519F40E945C042EC013
S11311608A30910519F40E94260428C08B30910519
S113117019F40E94180422C08C30910519F40E94BD
S11311804E041CC08D30910519F40E94400416C011
S11311908E30910519F40E94760410C08F309105A9
S11311A019F40E9468040AC08D31910519F40E9453
S11311B0D70304C04E9711F40E94E30380910D02FB
S11311C080930F028091090280931002809107019D
S11311D08093110280910801809312028091090189
S11311E08093130280910A018093140266E08FE0D9
S11311F092E00E94EE04809315029093160288E018
S11312008093A3020895EF92FF920F931F93CF93BD
S1131210DF93A895F0908E02E0900A02EF0C80E133
S11312208E1520F482E08093840156C080910B01D6
S1131230823049F400910D0110E0102F00278091B5
S11312400C01082B0AC0813021F400910C0110E03C
S113125004C082E0809384013FC0FE14C8F4C0E05F
S1131260D0E08C2F8F0D98010C2E02C03695279557
S11312700A94E2F720FF04C061E00E94950003C0D5
S113128060E00E94950021968C2F8F0D8E1548F3F7
S113129080910D0280930F028091090280931002C5
S11312A080910701809311028091080180931202BA
S11312B0809109018093130280910A0180931402A2
S11312C066E08FE092E00E94EE0480931502909312
S11312D0160288E08093A302DF91CF911F910F91B2
S11312E0FF90EF9008951F93CF93DF93A895C0913B
S11312F08E0210910A021C0F113418F4C11728F041
S113130059C082E08093840179C0D0E0ED2FF0E0F1
S1131310EE0FFF1FAC2FB0E0AA0FBB1FAD5DBC4F9B
S1131320EB5FFE4F878190E0982F88272085822BE2
S11313308D939C93C63019F40E94000436C0C730C4
S113134019F40E940C0431C0C83019F40E9434040A
S11313502CC0C93019F40E945C0427C0CA3019F4A7
S11313600E94260422C0CB3019F40E9418041DC028
S1131370CC3019F40E944E0418C0CD3019F40E94E8
S1131380400413C0CE3019F40E9476040EC0CF304E
S113139019F40E94680409C0CD3119F40E94D703DE
S11313A004C0CE3111F40E94E303DF5FCF5FC117A5
S11313B008F4ACCF80910D0280930F028091090252
S11313C0809310028091070180931102809108019B
S11313D080931202809109018093130280910A0183
S11313E08093140266E08FE092E00E94EE04809302
S11313F015029093160288E08093A302DF91CF91A7
S11314001F910895A89510928401209106012093BC
S113141009028091070190E0982F882730910801F4
S1131420832B90938F0280938E028091090190E028
S1131430982F882730910A01832B90930B02809375
S11314400A021092A3028BEF820F823038F481E0FB
S113145090E090930B0280930A020AC080910A02E2
S113146090910B02892B21F483E08093840154C072
S1131470213019F40E94080727C0223019F40E9471
S1131480080722C0233019F40E94B9071DC0243074
S113149019F40E94B90718C0253019F40E943208C3
S11314A013C0263019F40E947D080EC02F3019F4A1
S11314B00E94030909C0203119F40E94730904C071
S11314C081E08093840128C080918401811108C047
S11314D08091A302882319F190E00E947606089572
S11314E090910D0290930F0290910902906890934D
S11314F010028093110263E08FE092E00E94EE04F8
S1131500809312029093130285E08093A30285E0F6
S113151090E00E947606089580918401E1CF0895B9
S113152080910401882319F08150809304018091F3
S11315300C02882319F0815080930C0208951F92A5
S11315400F920FB60F9211242F933F934F935F93F3
S11315506F937F938F939F93AF93BF93EF93FF9377
S11315608FEF809385008FE6809384000E94900A19
S1131570FF91EF91BF91AF919F918F917F916F9167
S11315805F914F913F912F910F900FBE0F901F903D
S113159018952FEF3FE786E1215030408040E1F776
S11315A000C000000E945E00289AA8959FEF2FE7D4
S11315B036E1915020403040E1F700C00000E7E8F8
S11315C0F1E087E092E011921192E817F907D9F758
S11315D0E3E2F3E083EA93E011921192E817F9074A
S11315E0D9F78FEF9FE724E0815090402040E1F746
S11315F000C00000A8954D9919C00E94B10285E071
S1131600289A3FEF9FE724E0315090402040E1F7D3
S113161000C0000028983FEF9FE724E0315090403D
S11316202040E1F700C00000815051F7A8950E94C6
S113163084040E941A02A8950E9468002898A8951C
S11316403FEF8FEF9CE2315080409040E1F700C0C3
S11316500000A8950E94C700EFE5F3E06181808156
S11316600E944D0580915D0380930D0285E0809377
S113167081008FEF809385008FE680938400EFE6EE
S1131680F0E080818160808308958091610380FF10
S113169008C026E686EE90E0215080409040E1F7B5
S11316A00BC00895F8942FEF8FE796E12150804006
S11316B09040E1F700C000000E94C90A78948AE0D3
S11316C0809304011AE0C7E8D1E0A8950E94CF06F0
S11316D0813021F410930C020E94020A80910C02C2
S11316E0882311F0289A01C028988091040181115F
S11316F0ECCF109304010E94E8010E940B020E94A7
S113170041020E94450B888199818B3F2FEF9207FC
S113171020F4019699838883D8CF19821882D5CF73
S11317205058BB27AA270ED048C139D130F03ED13A
S113173020F031F49F3F11F41EF42EC10EF4E09515
S1131740E7FB24C1E92F4AD180F3BA176207730774
S11317508407950718F071F49EF562C10EF4E095C4
S11317600B2EBA2FA02D0B01B90190010C01CA0157
S1131770A0011124FF27591B99F0593F50F4503E02
S113178068F11A16F040A22F232F342F4427585FF4
S1131790F3CF469537952795A795F0405395C9F70C
S11317A07EF41F16BA0B620B730B840BBAF09150C4
S11317B0A1F0FF0FBB1F661F771F881FC2F70EC063
S11317C0BA0F621F731F841F48F487957795679536
S11317D0B795F7959E3F08F0B3CF9395880F08F01F
S11317E09927EE0F9795879508950CD0E6C0DED023
S11317F040F0D5D030F021F45F3F19F0C7C051114B
S113180010C1CAC0EBD098F39923C9F35523B1F39F
S1131810951B550BBB27AA2762177307840738F05B
S11318209F5F5F4F220F331F441FAA1FA9F333D0BA
S11318300E2E3AF0E0E830D091505040E695001C6E
S1131840CAF729D0FE2F27D0660F771F881FBB1F2A
S1131850261737074807AB07B0E809F0BB0B802D04
S1131860BF01FF2793585F4F2AF09E3F510568F050
S11318708DC0D7C05F3FECF3983EDCF38695779537
S11318806795B795F7959F5FC9F7880F911D969552
S1131890879597F90895E1E0660F771F881FBB1FAE
S11318A0621773078407BA0720F0621B730B840B5B
S11318B0BA0BEE1F88F7E095089598D088F09F57EB
S11318C090F0B92F9927B751A0F0D1F0660F771F88
S11318D0881F991F1AF0BA95C9F712C0B13081F068
S11318E09FD0B1E008959CC0672F782F8827B85FF8
S11318F039F0B93FCCF3869577956795B395D9F7C9
S11319003EF490958095709561957F4F8F4F9F4FD2
S11319100895E89409C097FB3EF4909580957095DE
S113192061957F4F8F4F9F4F9923A9F0F92F96E927
S1131930BB279395F695879577956795B795F1119C
S1131940F8CFFAF4BB0F11F460FF1BC06F5F7F4F39
S11319508F4F9F4F16C0882311F096E911C077234B
S113196021F09EE8872F762F05C0662371F096E854
S1131970862F70E060E02AF09A95660F771F881F23
S1131980DAF7880F9695879597F9089597F99F67E1
S113199080E870E060E008959FEF80EC08950024F3
S11319A00A941616170618060906089500240A94C0
S11319B012161306140605060895092E0394000C46
S11319C011F4882352F0BB0F40F4BF2B11F460FFD5
S11319D004C06F5F7F4F8F4F9F4F089557FD9058FE
S11319E0440F551F59F05F3F71F04795880F97FBDF
S11319F0991F61F09F3F79F0879508951216130699
S1131A001406551FF2CF4695F1DF08C016161706C7
S1131A101806991FF1CF86957105610508940895FC
S1131A20E894BB2766277727CB0197F9089566D0FA
S1131A3008F48FEF08950BD0C0CFB1DF28F0B6DFE4
S1131A4018F0952309F0A2CFA7CF1124EACFC6DF5F
S1131A50A0F3959FD1F3950F50E0551F629FF001BD
S1131A60729FBB27F00DB11D639FAA27F00DB11D16
S1131A70AA1F649F6627B00DA11D661F829F22279F
S1131A80B00DA11D621F739FB00DA11D621F839F26
S1131A90A00D611D221F749F3327A00D611D231FFC
S1131AA0849F600D211D822F762F6A2F11249F574A
S1131AB050408AF0E1F088234AF0EE0FFF1FBB1F6D
S1131AC0661F771F881F91505040A9F79E3F51050C
S1131AD070F05CCFA6CF5F3FECF3983EDCF38695C5
S1131AE077956795B795F795E7959F5FC1F7FE2BB7
S1131AF0880F911D9695879597F90895990F000879
S1131B00550FAA0BE0E8FEEF16161706E807F907CB
S1131B10C0F012161306E407F50798F0621B730B66
S1131B20840B950B39F40A2661F0232B242B252BE7
S1131B3021F408950A2609F4A140A6958FEF811D8A
S1131B40811D0895EE0FFF1F0590F491E02D099477
S1131B50DC01CB01FC01F999FECF06C0F2BDE1BD69
S1131B60F89A319600B40D9241505040B8F7089558
S1131B70F999FECF92BD81BDF89A992780B5089551
S1131B80A8E1B0E042E050E00C94AA0DDC01CB01E6
S1131B9003C02D910E94D10D41505040D0F70895BB
S1131BA0262FF999FECF1FBA92BD81BD20BD0FB675
S1131BB0F894FA9AF99A0FBE019608950E94D00DEE
S10D1BC0272F0C94D10DF894FFCFE9
S9030000FC
